{
  "_format": "hh-sol-artifact-1",
  "contractName": "TodoList",
  "sourceName": "contracts/TodoList.sol",
  "abi": [
    {
      "inputs": [],
      "stateMutability": "nonpayable",
      "type": "constructor"
    },
    {
      "inputs": [
        {
          "internalType": "string",
          "name": "_content",
          "type": "string"
        }
      ],
      "name": "createTask",
      "outputs": [],
      "stateMutability": "nonpayable",
      "type": "function"
    },
    {
      "inputs": [
        {
          "internalType": "uint256",
          "name": "_id",
          "type": "uint256"
        }
      ],
      "name": "deleteTask",
      "outputs": [],
      "stateMutability": "nonpayable",
      "type": "function"
    },
    {
      "inputs": [
        {
          "internalType": "uint256",
          "name": "_id",
          "type": "uint256"
        }
      ],
      "name": "setCompleted",
      "outputs": [],
      "stateMutability": "nonpayable",
      "type": "function"
    },
    {
      "inputs": [],
      "name": "taskCount",
      "outputs": [
        {
          "internalType": "uint256",
          "name": "",
          "type": "uint256"
        }
      ],
      "stateMutability": "view",
      "type": "function"
    },
    {
      "inputs": [
        {
          "internalType": "uint256",
          "name": "",
          "type": "uint256"
        }
      ],
      "name": "tasks",
      "outputs": [
        {
          "internalType": "uint256",
          "name": "id",
          "type": "uint256"
        },
        {
          "internalType": "string",
          "name": "content",
          "type": "string"
        },
        {
          "internalType": "bool",
          "name": "completed",
          "type": "bool"
        }
      ],
      "stateMutability": "view",
      "type": "function"
    }
  ],
  "bytecode": "0x6080604052600080553480156200001557600080fd5b506200005c6040518060400160405280601781526020017f636f6d706c65746520746869732044546f646f206170700000000000000000008152506200006260201b60201c565b620004d4565b600080815480929190620000769062000130565b919050555060405180606001604052806000548152602001828152602001600015158152506001600080548152602001908152602001600020600082015181600001556020820151816001019081620000d09190620003ed565b5060408201518160020160006101000a81548160ff02191690831515021790555090505050565b7f4e487b7100000000000000000000000000000000000000000000000000000000600052601160045260246000fd5b6000819050919050565b60006200013d8262000126565b91507fffffffffffffffffffffffffffffffffffffffffffffffffffffffffffffffff8203620001725762000171620000f7565b5b600182019050919050565b600081519050919050565b7f4e487b7100000000000000000000000000000000000000000000000000000000600052604160045260246000fd5b7f4e487b7100000000000000000000000000000000000000000000000000000000600052602260045260246000fd5b60006002820490506001821680620001ff57607f821691505b602082108103620002155762000214620001b7565b5b50919050565b60008190508160005260206000209050919050565b60006020601f8301049050919050565b600082821b905092915050565b6000600883026200027f7fffffffffffffffffffffffffffffffffffffffffffffffffffffffffffffffff8262000240565b6200028b868362000240565b95508019841693508086168417925050509392505050565b6000819050919050565b6000620002ce620002c8620002c28462000126565b620002a3565b62000126565b9050919050565b6000819050919050565b620002ea83620002ad565b62000302620002f982620002d5565b8484546200024d565b825550505050565b600090565b620003196200030a565b62000326818484620002df565b505050565b5b818110156200034e57620003426000826200030f565b6001810190506200032c565b5050565b601f8211156200039d5762000367816200021b565b620003728462000230565b8101602085101562000382578190505b6200039a620003918562000230565b8301826200032b565b50505b505050565b600082821c905092915050565b6000620003c260001984600802620003a2565b1980831691505092915050565b6000620003dd8383620003af565b9150826002028217905092915050565b620003f8826200017d565b67ffffffffffffffff81111562000414576200041362000188565b5b620004208254620001e6565b6200042d82828562000352565b600060209050601f83116001811462000465576000841562000450578287015190505b6200045c8582620003cf565b865550620004cc565b601f19841662000475866200021b565b60005b828110156200049f5784890151825560018201915060208501945060208101905062000478565b86831015620004bf5784890151620004bb601f891682620003af565b8355505b6001600288020188555050505b505050505050565b610b8480620004e46000396000f3fe608060405234801561001057600080fd5b50600436106100575760003560e01c8063111002aa1461005c578063560f3192146100785780638d97767214610094578063b6cb58a5146100c6578063fdacd576146100e4575b600080fd5b6100766004803603810190610071919061054a565b610100565b005b610092600480360381019061008d91906105c9565b610191565b005b6100ae60048036038101906100a991906105c9565b610245565b6040516100bd9392919061069f565b60405180910390f35b6100ce610304565b6040516100db91906106dd565b60405180910390f35b6100fe60048036038101906100f991906105c9565b61030a565b005b60008081548092919061011290610727565b91905055506040518060600160405280600054815260200182815260200160001515815250600160008054815260200190815260200160002060008201518160000155602082015181600101908161016a919061097b565b5060408201518160020160006101000a81548160ff02191690831515021790555090505050565b806001600083815260200190815260200160002060000154146101e9576040517f08c379a00000000000000000000000000000000000000000000000000000000081526004016101e090610a99565b60405180910390fd5b6000808154809291906101fb90610ab9565b91905055506001600082815260200190815260200160002060008082016000905560018201600061022c9190610393565b6002820160006101000a81549060ff0219169055505050565b600160205280600052604060002060009150905080600001549080600101805461026e9061079e565b80601f016020809104026020016040519081016040528092919081815260200182805461029a9061079e565b80156102e75780601f106102bc576101008083540402835291602001916102e7565b820191906000526020600020905b8154815290600101906020018083116102ca57829003601f168201915b5050505050908060020160009054906101000a900460ff16905083565b60005481565b80600160008381526020019081526020016000206000015414610362576040517f08c379a000000000000000000000000000000000000000000000000000000000815260040161035990610b2e565b60405180910390fd5b600180600083815260200190815260200160002060020160006101000a81548160ff02191690831515021790555050565b50805461039f9061079e565b6000825580601f106103b157506103d0565b601f0160209004906000526020600020908101906103cf91906103d3565b5b50565b5b808211156103ec5760008160009055506001016103d4565b5090565b6000604051905090565b600080fd5b600080fd5b600080fd5b600080fd5b6000601f19601f8301169050919050565b7f4e487b7100000000000000000000000000000000000000000000000000000000600052604160045260246000fd5b6104578261040e565b810181811067ffffffffffffffff821117156104765761047561041f565b5b80604052505050565b60006104896103f0565b9050610495828261044e565b919050565b600067ffffffffffffffff8211156104b5576104b461041f565b5b6104be8261040e565b9050602081019050919050565b82818337600083830152505050565b60006104ed6104e88461049a565b61047f565b90508281526020810184848401111561050957610508610409565b5b6105148482856104cb565b509392505050565b600082601f83011261053157610530610404565b5b81356105418482602086016104da565b91505092915050565b6000602082840312156105605761055f6103fa565b5b600082013567ffffffffffffffff81111561057e5761057d6103ff565b5b61058a8482850161051c565b91505092915050565b6000819050919050565b6105a681610593565b81146105b157600080fd5b50565b6000813590506105c38161059d565b92915050565b6000602082840312156105df576105de6103fa565b5b60006105ed848285016105b4565b91505092915050565b6105ff81610593565b82525050565b600081519050919050565b600082825260208201905092915050565b60005b8381101561063f578082015181840152602081019050610624565b60008484015250505050565b600061065682610605565b6106608185610610565b9350610670818560208601610621565b6106798161040e565b840191505092915050565b60008115159050919050565b61069981610684565b82525050565b60006060820190506106b460008301866105f6565b81810360208301526106c6818561064b565b90506106d56040830184610690565b949350505050565b60006020820190506106f260008301846105f6565b92915050565b7f4e487b7100000000000000000000000000000000000000000000000000000000600052601160045260246000fd5b600061073282610593565b91507fffffffffffffffffffffffffffffffffffffffffffffffffffffffffffffffff8203610764576107636106f8565b5b600182019050919050565b7f4e487b7100000000000000000000000000000000000000000000000000000000600052602260045260246000fd5b600060028204905060018216806107b657607f821691505b6020821081036107c9576107c861076f565b5b50919050565b60008190508160005260206000209050919050565b60006020601f8301049050919050565b600082821b905092915050565b6000600883026108317fffffffffffffffffffffffffffffffffffffffffffffffffffffffffffffffff826107f4565b61083b86836107f4565b95508019841693508086168417925050509392505050565b6000819050919050565b600061087861087361086e84610593565b610853565b610593565b9050919050565b6000819050919050565b6108928361085d565b6108a661089e8261087f565b848454610801565b825550505050565b600090565b6108bb6108ae565b6108c6818484610889565b505050565b5b818110156108ea576108df6000826108b3565b6001810190506108cc565b5050565b601f82111561092f57610900816107cf565b610909846107e4565b81016020851015610918578190505b61092c610924856107e4565b8301826108cb565b50505b505050565b600082821c905092915050565b600061095260001984600802610934565b1980831691505092915050565b600061096b8383610941565b9150826002028217905092915050565b61098482610605565b67ffffffffffffffff81111561099d5761099c61041f565b5b6109a7825461079e565b6109b28282856108ee565b600060209050601f8311600181146109e557600084156109d3578287015190505b6109dd858261095f565b865550610a45565b601f1984166109f3866107cf565b60005b82811015610a1b578489015182556001820191506020850194506020810190506109f6565b86831015610a385784890151610a34601f891682610941565b8355505b6001600288020188555050505b505050505050565b7f7461736b206973206e6f7420666f756e64000000000000000000000000000000600082015250565b6000610a83601183610610565b9150610a8e82610a4d565b602082019050919050565b60006020820190508181036000830152610ab281610a76565b9050919050565b6000610ac482610593565b915060008203610ad757610ad66106f8565b5b600182039050919050565b7f5461736b206973206e6f7420666f756e64000000000000000000000000000000600082015250565b6000610b18601183610610565b9150610b2382610ae2565b602082019050919050565b60006020820190508181036000830152610b4781610b0b565b905091905056fea26469706673582212200d6fffbbbdaba99c2475c6a664b65d4e0b624b6113389bbb33e2f34585ae207364736f6c63430008180033",
  "linkReferences": {},
  "deployedLinkReferences": {}
}